{
  "_format": "hh-sol-artifact-1",
  "contractName": "OpenHarvest",
  "sourceName": "contracts/contract.sol",
  "abi": [
    {
      "anonymous": false,
      "inputs": [
        {
          "indexed": false,
          "internalType": "uint256",
          "name": "value",
          "type": "uint256"
        }
      ],
      "name": "Decrement",
      "type": "event"
    },
    {
      "anonymous": false,
      "inputs": [
        {
          "indexed": false,
          "internalType": "uint256",
          "name": "value",
          "type": "uint256"
        }
      ],
      "name": "Increment",
      "type": "event"
    },
    {
      "inputs": [],
      "name": "count",
      "outputs": [
        {
          "internalType": "uint256",
          "name": "",
          "type": "uint256"
        }
      ],
      "stateMutability": "view",
      "type": "function"
    },
    {
      "inputs": [],
      "name": "decrement",
      "outputs": [],
      "stateMutability": "nonpayable",
      "type": "function"
    },
    {
      "inputs": [],
      "name": "getCount",
      "outputs": [
        {
          "internalType": "uint256",
          "name": "",
          "type": "uint256"
        }
      ],
      "stateMutability": "view",
      "type": "function"
    },
    {
      "inputs": [],
      "name": "increment",
      "outputs": [],
      "stateMutability": "nonpayable",
      "type": "function"
    }
  ],
  "bytecode": "0x60806040526000805534801561001457600080fd5b50610260806100246000396000f3fe608060405234801561001057600080fd5b506004361061004c5760003560e01c806306661abd146100515780632baeceb71461006f578063a87d942c14610079578063d09de08a14610097575b600080fd5b6100596100a1565b6040516100669190610163565b60405180910390f35b6100776100a7565b005b6100816100f9565b60405161008e9190610163565b60405180910390f35b61009f610102565b005b60005481565b6000808154809291906100b990610188565b91905055507f32814a5bdfd1b8c3d76c49c54e043d6e8aa93d197a09e16599b567135503f7486000546040516100ef9190610163565b60405180910390a1565b60008054905090565b600080815480929190610114906101b2565b91905055507f51af157c2eee40f68107a47a49c32fbbeb0a3c9e5cd37aa56e88e6be92368a8160005460405161014a9190610163565b60405180910390a1565b61015d8161017e565b82525050565b60006020820190506101786000830184610154565b92915050565b6000819050919050565b60006101938261017e565b915060008214156101a7576101a66101fb565b5b600182039050919050565b60006101bd8261017e565b91507fffffffffffffffffffffffffffffffffffffffffffffffffffffffffffffffff8214156101f0576101ef6101fb565b5b600182019050919050565b7f4e487b7100000000000000000000000000000000000000000000000000000000600052601160045260246000fdfea2646970667358221220bf3e38560b1c9919a28a9f677e3d2467b5d7f7b49725188c40895ce0136a3d5064736f6c63430008040033",
  "linkReferences": {},
  "deployedLinkReferences": {}
}