{
  "_format": "hh-sol-artifact-1",
  "contractName": "OpenHarvest",
  "sourceName": "contracts/OpenHarvest.sol",
  "abi": [
    {
      "inputs": [],
      "stateMutability": "nonpayable",
      "type": "constructor"
    },
    {
      "anonymous": false,
      "inputs": [
        {
          "indexed": false,
          "internalType": "uint256",
          "name": "value",
          "type": "uint256"
        }
      ],
      "name": "Decrement",
      "type": "event"
    },
    {
      "anonymous": false,
      "inputs": [
        {
          "indexed": false,
          "internalType": "uint256",
          "name": "value",
          "type": "uint256"
        }
      ],
      "name": "Increment",
      "type": "event"
    },
    {
      "anonymous": false,
      "inputs": [
        {
          "indexed": false,
          "internalType": "bool",
          "name": "isGreenLightOn",
          "type": "bool"
        }
      ],
      "name": "ToggleGreenLight",
      "type": "event"
    },
    {
      "inputs": [],
      "name": "count",
      "outputs": [
        {
          "internalType": "uint256",
          "name": "",
          "type": "uint256"
        }
      ],
      "stateMutability": "view",
      "type": "function"
    },
    {
      "inputs": [],
      "name": "decrement",
      "outputs": [],
      "stateMutability": "nonpayable",
      "type": "function"
    },
    {
      "inputs": [],
      "name": "getAllowance",
      "outputs": [
        {
          "internalType": "uint256",
          "name": "",
          "type": "uint256"
        }
      ],
      "stateMutability": "view",
      "type": "function"
    },
    {
      "inputs": [],
      "name": "getCount",
      "outputs": [
        {
          "internalType": "uint256",
          "name": "",
          "type": "uint256"
        }
      ],
      "stateMutability": "view",
      "type": "function"
    },
    {
      "inputs": [],
      "name": "getGreenLightSetting",
      "outputs": [
        {
          "internalType": "bool",
          "name": "",
          "type": "bool"
        }
      ],
      "stateMutability": "view",
      "type": "function"
    },
    {
      "inputs": [],
      "name": "getUserTokenBalance",
      "outputs": [
        {
          "internalType": "uint256",
          "name": "",
          "type": "uint256"
        }
      ],
      "stateMutability": "view",
      "type": "function"
    },
    {
      "inputs": [],
      "name": "increment",
      "outputs": [],
      "stateMutability": "nonpayable",
      "type": "function"
    },
    {
      "inputs": [],
      "name": "isGreenLightOn",
      "outputs": [
        {
          "internalType": "bool",
          "name": "",
          "type": "bool"
        }
      ],
      "stateMutability": "view",
      "type": "function"
    },
    {
      "inputs": [],
      "name": "toggleGreenLight",
      "outputs": [],
      "stateMutability": "nonpayable",
      "type": "function"
    },
    {
      "inputs": [],
      "name": "token",
      "outputs": [
        {
          "internalType": "contract IERC20",
          "name": "",
          "type": "address"
        }
      ],
      "stateMutability": "view",
      "type": "function"
    }
  ],
  "bytecode": "0x608060405260006002556000600360006101000a81548160ff02191690831515021790555034801561003057600080fd5b50735c7c905b505f0cf40ab6600d05e677f717916f6b6000806101000a81548173ffffffffffffffffffffffffffffffffffffffff021916908373ffffffffffffffffffffffffffffffffffffffff16021790555033600160006101000a81548173ffffffffffffffffffffffffffffffffffffffff021916908373ffffffffffffffffffffffffffffffffffffffff160217905550610cca806100d56000396000f3fe608060405234801561001057600080fd5b506004361061009e5760003560e01c8063973e9b8b11610066578063973e9b8b14610111578063a3405f391461012f578063a87d942c1461014d578063d09de08a1461016b578063fc0c546a146101755761009e565b806306661abd146100a35780632baeceb7146100c15780633bd603e3146100cb57806388ac65d1146100e957806395b63bb7146100f3575b600080fd5b6100ab610193565b6040516100b8919061098e565b60405180910390f35b6100c9610199565b005b6100d36101ec565b6040516100e09190610936565b60405180910390f35b6100f16101ff565b005b6100fb6103ab565b6040516101089190610936565b60405180910390f35b6101196103c2565b604051610126919061098e565b60405180910390f35b610137610475565b604051610144919061098e565b60405180910390f35b610155610526565b604051610162919061098e565b60405180910390f35b610173610530565b005b61017d610583565b60405161018a9190610951565b60405180910390f35b60025481565b600260008154809291906101ac90610b2a565b91905055507f32814a5bdfd1b8c3d76c49c54e043d6e8aa93d197a09e16599b567135503f7486002546040516101e2919061098e565b60405180910390a1565b600360009054906101000a900460ff1681565b6000674563918244f400009050806102156103c2565b10156102276102226103c2565b6105a7565b6040516020016102379190610899565b60405160208183030381529060405290610287576040517f08c379a000000000000000000000000000000000000000000000000000000000815260040161027e919061096c565b60405180910390fd5b5060008054906101000a900473ffffffffffffffffffffffffffffffffffffffff1673ffffffffffffffffffffffffffffffffffffffff166323b872dd3330846040518463ffffffff1660e01b81526004016102e5939291906108ff565b602060405180830381600087803b1580156102ff57600080fd5b505af1158015610313573d6000803e3d6000fd5b505050506040513d601f19601f82011682018060405250810190610337919061077e565b50600360009054906101000a900460ff1615600360006101000a81548160ff0219169083151502179055507f90b715178c560884c608a323539df10eaabde874e3d61c603a9963ce612aed7d600360009054906101000a900460ff166040516103a09190610936565b60405180910390a150565b6000600360009054906101000a900460ff16905090565b60008060009054906101000a900473ffffffffffffffffffffffffffffffffffffffff1673ffffffffffffffffffffffffffffffffffffffff1663dd62ed3e33306040518363ffffffff1660e01b81526004016104209291906108d6565b60206040518083038186803b15801561043857600080fd5b505afa15801561044c573d6000803e3d6000fd5b505050506040513d601f19601f8201168201806040525081019061047091906107a7565b905090565b60008060009054906101000a900473ffffffffffffffffffffffffffffffffffffffff1673ffffffffffffffffffffffffffffffffffffffff166370a08231336040518263ffffffff1660e01b81526004016104d191906108bb565b60206040518083038186803b1580156104e957600080fd5b505afa1580156104fd573d6000803e3d6000fd5b505050506040513d601f19601f8201168201806040525081019061052191906107a7565b905090565b6000600254905090565b6002600081548092919061054390610b54565b91905055507f51af157c2eee40f68107a47a49c32fbbeb0a3c9e5cd37aa56e88e6be92368a81600254604051610579919061098e565b60405180910390a1565b60008054906101000a900473ffffffffffffffffffffffffffffffffffffffff1681565b606060008214156105ef576040518060400160405280600181526020017f3000000000000000000000000000000000000000000000000000000000000000815250905061074f565b600082905060005b6000821461062157808061060a90610b54565b915050600a8261061a9190610a26565b91506105f7565b60008167ffffffffffffffff811115610663577f4e487b7100000000000000000000000000000000000000000000000000000000600052604160045260246000fd5b6040519080825280601f01601f1916602001820160405280156106955781602001600182028036833780820191505090505b5090505b60008514610748576001826106ae9190610a57565b9150600a856106bd9190610b9d565b60306106c991906109d0565b60f81b818381518110610705577f4e487b7100000000000000000000000000000000000000000000000000000000600052603260045260246000fd5b60200101907effffffffffffffffffffffffffffffffffffffffffffffffffffffffffffff1916908160001a905350600a856107419190610a26565b9450610699565b8093505050505b919050565b60008151905061076381610c66565b92915050565b60008151905061077881610c7d565b92915050565b60006020828403121561079057600080fd5b600061079e84828501610754565b91505092915050565b6000602082840312156107b957600080fd5b60006107c784828501610769565b91505092915050565b6107d981610a8b565b82525050565b6107e881610a9d565b82525050565b6107f781610ad3565b82525050565b6000610808826109a9565b61081281856109b4565b9350610822818560208601610af7565b61082b81610c2c565b840191505092915050565b6000610841826109a9565b61084b81856109c5565b935061085b818560208601610af7565b80840191505092915050565b6000610874600b836109c5565b915061087f82610c3d565b600b82019050919050565b61089381610ac9565b82525050565b60006108a482610867565b91506108b08284610836565b915081905092915050565b60006020820190506108d060008301846107d0565b92915050565b60006040820190506108eb60008301856107d0565b6108f860208301846107d0565b9392505050565b600060608201905061091460008301866107d0565b61092160208301856107d0565b61092e604083018461088a565b949350505050565b600060208201905061094b60008301846107df565b92915050565b600060208201905061096660008301846107ee565b92915050565b6000602082019050818103600083015261098681846107fd565b905092915050565b60006020820190506109a3600083018461088a565b92915050565b600081519050919050565b600082825260208201905092915050565b600081905092915050565b60006109db82610ac9565b91506109e683610ac9565b9250827fffffffffffffffffffffffffffffffffffffffffffffffffffffffffffffffff03821115610a1b57610a1a610bce565b5b828201905092915050565b6000610a3182610ac9565b9150610a3c83610ac9565b925082610a4c57610a4b610bfd565b5b828204905092915050565b6000610a6282610ac9565b9150610a6d83610ac9565b925082821015610a8057610a7f610bce565b5b828203905092915050565b6000610a9682610aa9565b9050919050565b60008115159050919050565b600073ffffffffffffffffffffffffffffffffffffffff82169050919050565b6000819050919050565b6000610ade82610ae5565b9050919050565b6000610af082610aa9565b9050919050565b60005b83811015610b15578082015181840152602081019050610afa565b83811115610b24576000848401525b50505050565b6000610b3582610ac9565b91506000821415610b4957610b48610bce565b5b600182039050919050565b6000610b5f82610ac9565b91507fffffffffffffffffffffffffffffffffffffffffffffffffffffffffffffffff821415610b9257610b91610bce565b5b600182019050919050565b6000610ba882610ac9565b9150610bb383610ac9565b925082610bc357610bc2610bfd565b5b828206905092915050565b7f4e487b7100000000000000000000000000000000000000000000000000000000600052601160045260246000fd5b7f4e487b7100000000000000000000000000000000000000000000000000000000600052601260045260246000fd5b6000601f19601f8301169050919050565b7f416c6c6f77616e63653a20000000000000000000000000000000000000000000600082015250565b610c6f81610a9d565b8114610c7a57600080fd5b50565b610c8681610ac9565b8114610c9157600080fd5b5056fea2646970667358221220c8546a682d96a8f0aa3581ea90b81beb65a98b8cdbee71940fdade11215b090064736f6c63430008040033",
  "linkReferences": {},
  "deployedLinkReferences": {}
}